:03000000020030CB
:03000B0002007A76
:1000300075815F75320C7531007530007534067549
:10004000351E753300753600753700753800753903
:1000500000753A00D2B2D2B3D2B4C2B5D290D29126
:10006000758901758C4C758A00C28DD28C75A882F9
:1000700031F211F711C8317E80F8C0E0C0D0758C24
:100080004C758A00E538600E053AE53AB40A0C75FD
:100090003A00B2B58005C2B5753A000533E533B410
:1000A00014217533000530E530B43C177530000578
:1000B00031E531B43C0D7531000532E532B4180339
:1000C000753200D0D0D0E032E53670097538007551
:1000D0003900C2B522E532B53419E531B53514E53C
:1000E000307013E539700F753901753801753A00B4
:1000F000D2B5227539002230B40730B21E30B32D8C
:1001000022512320B477E5386008753800C2B55114
:100110003422E5366401F536513422512320B25D94
:100120000537E537B40503753700512C22512320DC
:10013000B34BE5376045B40113C2A90532E532B4CB
:100140001803753200753000D2A9802FB40213C293
:10015000A90531E531B43C03753100753000D2A9F1
:100160008019B4030C0534E534B4180F75340080DD
:100170000A0535E535B43C03753500513022E537C5
:0E018000600AB403028017B404028012C2A900
:10018E00E532F53BE531F53CE530F53DD2A9800B86
:10019E00E534F53BE535F53C753D0031FB744051DA
:1001AE000D510431FB74C0510DE53B75F00A8451BD
:1001BE0038510DE5F05138FEE5377006E53D540136
:1001CE007004EE4480FEEE510DE53C75F00A84514C
:1001DE0038510DE5F05138510D510431FB748F51EA
:1001EE000D51042231FB7440510D510422D291D293
:1001FE0090C291C29022C290C291D290D291227F8F
:10020E0008C290139291D29000C290DFF4D291D294
:10021E009000C290227D1E7CC8DCFEDDFA2230B238
:10022E00FD2230B3FD2230B4FD2290023D93223FD9
:09023E00065B4F666D7D077F6FC2
:00000001FF
