:03000000020030CB
:03000B0002007A76
:1000300075815F75320C7531007530007533007550
:10004000340675351E7536007537007538007539FC
:1000500000753A00D2B2D2B3D2B4C2B5D290D29126
:10006000758901758C4C758A00C28DD28C75A882F9
:1000700031B811F311C8314E80F8C0E0C0D0758C92
:100080004C758A00E5387007C2B5753A00800C05DA
:100090003AE53AB40A05753A00B2B50533E533B42A
:1000A00014217533000530E530B43C177530000578
:1000B00031E531B43C0D7531000532E532B4180339
:1000C000753200D0D0D0E032E53670097538007551
:1000D0003900C2B522E532B53415E531B53510E544
:1000E00039700F753901753801753A00D2B522752E
:1000F00039002230B40730B21E30B32D2231E9204E
:10010000B44BE5386008753800C2B531FA22E536DF
:100110006401F53631FA2231E920B2310537E5378D
:10012000B4030375370031F22231E920B31FE537FC
:100130006019B4010C0534E534B4180F753400802F
:100140000A0535E535B43C0375350031F622E5374F
:100150007012C2A9E532F53BE531F53CE530F53DDD
:10016000D2A9800BE534F53BE535F53C753D003112
:10017000C1744031D331CA31C174C031D3E53B754C
:05018000F00A8431FECD
:1001850031D3E5F031FEFEE5377006E53D540170EB
:1001950004EE4480FEEE31D3E53C75F00A8431FE71
:1001A50031D3E5F031FE31D331CA31C1748F31D34A
:1001B50031CA2231C1744031D331CA22D291D29091
:1001C500C291C29022C290C291D290D291227F0850
:1001D500C290139291D29000C290DFF4D291D29046
:1001E50000C290227D1E7CC8DCFEDDFA2230B2FD05
:1001F5002230B3FD2230B4FD2290020393223F0644
:080205005B4F666D7D077F6F02
:00000001FF
